{
  "contractName": "FootiumPlayer",
  "abi": [
    {
      "anonymous": false,
      "inputs": [
        {
          "indexed": true,
          "internalType": "address",
          "name": "owner",
          "type": "address"
        },
        {
          "indexed": true,
          "internalType": "address",
          "name": "approved",
          "type": "address"
        },
        {
          "indexed": true,
          "internalType": "uint256",
          "name": "tokenId",
          "type": "uint256"
        }
      ],
      "name": "Approval",
      "type": "event"
    },
    {
      "anonymous": false,
      "inputs": [
        {
          "indexed": true,
          "internalType": "address",
          "name": "owner",
          "type": "address"
        },
        {
          "indexed": true,
          "internalType": "address",
          "name": "operator",
          "type": "address"
        },
        {
          "indexed": false,
          "internalType": "bool",
          "name": "approved",
          "type": "bool"
        }
      ],
      "name": "ApprovalForAll",
      "type": "event"
    },
    {
      "anonymous": false,
      "inputs": [
        {
          "indexed": false,
          "internalType": "uint8",
          "name": "version",
          "type": "uint8"
        }
      ],
      "name": "Initialized",
      "type": "event"
    },
    {
      "anonymous": false,
      "inputs": [
        {
          "indexed": true,
          "internalType": "address",
          "name": "previousOwner",
          "type": "address"
        },
        {
          "indexed": true,
          "internalType": "address",
          "name": "newOwner",
          "type": "address"
        }
      ],
      "name": "OwnershipTransferred",
      "type": "event"
    },
    {
      "anonymous": false,
      "inputs": [
        {
          "indexed": false,
          "internalType": "address",
          "name": "account",
          "type": "address"
        }
      ],
      "name": "Paused",
      "type": "event"
    },
    {
      "anonymous": false,
      "inputs": [
        {
          "indexed": true,
          "internalType": "bytes32",
          "name": "role",
          "type": "bytes32"
        },
        {
          "indexed": true,
          "internalType": "bytes32",
          "name": "previousAdminRole",
          "type": "bytes32"
        },
        {
          "indexed": true,
          "internalType": "bytes32",
          "name": "newAdminRole",
          "type": "bytes32"
        }
      ],
      "name": "RoleAdminChanged",
      "type": "event"
    },
    {
      "anonymous": false,
      "inputs": [
        {
          "indexed": true,
          "internalType": "bytes32",
          "name": "role",
          "type": "bytes32"
        },
        {
          "indexed": true,
          "internalType": "address",
          "name": "account",
          "type": "address"
        },
        {
          "indexed": true,
          "internalType": "address",
          "name": "sender",
          "type": "address"
        }
      ],
      "name": "RoleGranted",
      "type": "event"
    },
    {
      "anonymous": false,
      "inputs": [
        {
          "indexed": true,
          "internalType": "bytes32",
          "name": "role",
          "type": "bytes32"
        },
        {
          "indexed": true,
          "internalType": "address",
          "name": "account",
          "type": "address"
        },
        {
          "indexed": true,
          "internalType": "address",
          "name": "sender",
          "type": "address"
        }
      ],
      "name": "RoleRevoked",
      "type": "event"
    },
    {
      "anonymous": false,
      "inputs": [
        {
          "indexed": true,
          "internalType": "address",
          "name": "from",
          "type": "address"
        },
        {
          "indexed": true,
          "internalType": "address",
          "name": "to",
          "type": "address"
        },
        {
          "indexed": true,
          "internalType": "uint256",
          "name": "tokenId",
          "type": "uint256"
        }
      ],
      "name": "Transfer",
      "type": "event"
    },
    {
      "anonymous": false,
      "inputs": [
        {
          "indexed": false,
          "internalType": "address",
          "name": "account",
          "type": "address"
        }
      ],
      "name": "Unpaused",
      "type": "event"
    },
    {
      "inputs": [],
      "name": "DEFAULT_ADMIN_ROLE",
      "outputs": [
        {
          "internalType": "bytes32",
          "name": "",
          "type": "bytes32"
        }
      ],
      "stateMutability": "view",
      "type": "function"
    },
    {
      "inputs": [],
      "name": "MINTER_ROLE",
      "outputs": [
        {
          "internalType": "bytes32",
          "name": "",
          "type": "bytes32"
        }
      ],
      "stateMutability": "view",
      "type": "function"
    },
    {
      "inputs": [],
      "name": "activateContract",
      "outputs": [],
      "stateMutability": "nonpayable",
      "type": "function"
    },
    {
      "inputs": [
        {
          "internalType": "address",
          "name": "to",
          "type": "address"
        },
        {
          "internalType": "uint256",
          "name": "tokenId",
          "type": "uint256"
        }
      ],
      "name": "approve",
      "outputs": [],
      "stateMutability": "nonpayable",
      "type": "function"
    },
    {
      "inputs": [
        {
          "internalType": "address",
          "name": "owner",
          "type": "address"
        }
      ],
      "name": "balanceOf",
      "outputs": [
        {
          "internalType": "uint256",
          "name": "",
          "type": "uint256"
        }
      ],
      "stateMutability": "view",
      "type": "function"
    },
    {
      "inputs": [
        {
          "internalType": "uint256",
          "name": "tokenId",
          "type": "uint256"
        }
      ],
      "name": "getApproved",
      "outputs": [
        {
          "internalType": "address",
          "name": "",
          "type": "address"
        }
      ],
      "stateMutability": "view",
      "type": "function"
    },
    {
      "inputs": [
        {
          "internalType": "bytes32",
          "name": "role",
          "type": "bytes32"
        }
      ],
      "name": "getRoleAdmin",
      "outputs": [
        {
          "internalType": "bytes32",
          "name": "",
          "type": "bytes32"
        }
      ],
      "stateMutability": "view",
      "type": "function"
    },
    {
      "inputs": [
        {
          "internalType": "bytes32",
          "name": "role",
          "type": "bytes32"
        },
        {
          "internalType": "address",
          "name": "account",
          "type": "address"
        }
      ],
      "name": "grantRole",
      "outputs": [],
      "stateMutability": "nonpayable",
      "type": "function"
    },
    {
      "inputs": [
        {
          "internalType": "bytes32",
          "name": "role",
          "type": "bytes32"
        },
        {
          "internalType": "address",
          "name": "account",
          "type": "address"
        }
      ],
      "name": "hasRole",
      "outputs": [
        {
          "internalType": "bool",
          "name": "",
          "type": "bool"
        }
      ],
      "stateMutability": "view",
      "type": "function"
    },
    {
      "inputs": [
        {
          "internalType": "address",
          "name": "_receiver",
          "type": "address"
        },
        {
          "internalType": "uint96",
          "name": "_royaltyFeePercentage",
          "type": "uint96"
        },
        {
          "internalType": "string",
          "name": "baseURI",
          "type": "string"
        }
      ],
      "name": "initialize",
      "outputs": [],
      "stateMutability": "nonpayable",
      "type": "function"
    },
    {
      "inputs": [
        {
          "internalType": "address",
          "name": "owner",
          "type": "address"
        },
        {
          "internalType": "address",
          "name": "operator",
          "type": "address"
        }
      ],
      "name": "isApprovedForAll",
      "outputs": [
        {
          "internalType": "bool",
          "name": "",
          "type": "bool"
        }
      ],
      "stateMutability": "view",
      "type": "function"
    },
    {
      "inputs": [],
      "name": "name",
      "outputs": [
        {
          "internalType": "string",
          "name": "",
          "type": "string"
        }
      ],
      "stateMutability": "view",
      "type": "function"
    },
    {
      "inputs": [],
      "name": "owner",
      "outputs": [
        {
          "internalType": "address",
          "name": "",
          "type": "address"
        }
      ],
      "stateMutability": "view",
      "type": "function"
    },
    {
      "inputs": [
        {
          "internalType": "uint256",
          "name": "tokenId",
          "type": "uint256"
        }
      ],
      "name": "ownerOf",
      "outputs": [
        {
          "internalType": "address",
          "name": "",
          "type": "address"
        }
      ],
      "stateMutability": "view",
      "type": "function"
    },
    {
      "inputs": [],
      "name": "pauseContract",
      "outputs": [],
      "stateMutability": "nonpayable",
      "type": "function"
    },
    {
      "inputs": [],
      "name": "paused",
      "outputs": [
        {
          "internalType": "bool",
          "name": "",
          "type": "bool"
        }
      ],
      "stateMutability": "view",
      "type": "function"
    },
    {
      "inputs": [],
      "name": "renounceOwnership",
      "outputs": [],
      "stateMutability": "nonpayable",
      "type": "function"
    },
    {
      "inputs": [
        {
          "internalType": "bytes32",
          "name": "role",
          "type": "bytes32"
        },
        {
          "internalType": "address",
          "name": "account",
          "type": "address"
        }
      ],
      "name": "renounceRole",
      "outputs": [],
      "stateMutability": "nonpayable",
      "type": "function"
    },
    {
      "inputs": [
        {
          "internalType": "bytes32",
          "name": "role",
          "type": "bytes32"
        },
        {
          "internalType": "address",
          "name": "account",
          "type": "address"
        }
      ],
      "name": "revokeRole",
      "outputs": [],
      "stateMutability": "nonpayable",
      "type": "function"
    },
    {
      "inputs": [
        {
          "internalType": "uint256",
          "name": "_tokenId",
          "type": "uint256"
        },
        {
          "internalType": "uint256",
          "name": "_salePrice",
          "type": "uint256"
        }
      ],
      "name": "royaltyInfo",
      "outputs": [
        {
          "internalType": "address",
          "name": "",
          "type": "address"
        },
        {
          "internalType": "uint256",
          "name": "",
          "type": "uint256"
        }
      ],
      "stateMutability": "view",
      "type": "function"
    },
    {
      "inputs": [
        {
          "internalType": "address",
          "name": "to",
          "type": "address"
        }
      ],
      "name": "safeMint",
      "outputs": [
        {
          "internalType": "uint256",
          "name": "tokenId",
          "type": "uint256"
        }
      ],
      "stateMutability": "nonpayable",
      "type": "function"
    },
    {
      "inputs": [
        {
          "internalType": "address",
          "name": "from",
          "type": "address"
        },
        {
          "internalType": "address",
          "name": "to",
          "type": "address"
        },
        {
          "internalType": "uint256",
          "name": "tokenId",
          "type": "uint256"
        }
      ],
      "name": "safeTransferFrom",
      "outputs": [],
      "stateMutability": "nonpayable",
      "type": "function"
    },
    {
      "inputs": [
        {
          "internalType": "address",
          "name": "from",
          "type": "address"
        },
        {
          "internalType": "address",
          "name": "to",
          "type": "address"
        },
        {
          "internalType": "uint256",
          "name": "tokenId",
          "type": "uint256"
        },
        {
          "internalType": "bytes",
          "name": "data",
          "type": "bytes"
        }
      ],
      "name": "safeTransferFrom",
      "outputs": [],
      "stateMutability": "nonpayable",
      "type": "function"
    },
    {
      "inputs": [
        {
          "internalType": "address",
          "name": "operator",
          "type": "address"
        },
        {
          "internalType": "bool",
          "name": "approved",
          "type": "bool"
        }
      ],
      "name": "setApprovalForAll",
      "outputs": [],
      "stateMutability": "nonpayable",
      "type": "function"
    },
    {
      "inputs": [
        {
          "internalType": "string",
          "name": "baseURI",
          "type": "string"
        }
      ],
      "name": "setBaseURI",
      "outputs": [],
      "stateMutability": "nonpayable",
      "type": "function"
    },
    {
      "inputs": [
        {
          "internalType": "address",
          "name": "_receiver",
          "type": "address"
        },
        {
          "internalType": "uint96",
          "name": "_royaltyFeePercentage",
          "type": "uint96"
        }
      ],
      "name": "setRoyaltyInfo",
      "outputs": [],
      "stateMutability": "nonpayable",
      "type": "function"
    },
    {
      "inputs": [
        {
          "internalType": "bytes4",
          "name": "interfaceId",
          "type": "bytes4"
        }
      ],
      "name": "supportsInterface",
      "outputs": [
        {
          "internalType": "bool",
          "name": "",
          "type": "bool"
        }
      ],
      "stateMutability": "view",
      "type": "function"
    },
    {
      "inputs": [],
      "name": "symbol",
      "outputs": [
        {
          "internalType": "string",
          "name": "",
          "type": "string"
        }
      ],
      "stateMutability": "view",
      "type": "function"
    },
    {
      "inputs": [
        {
          "internalType": "uint256",
          "name": "tokenId",
          "type": "uint256"
        }
      ],
      "name": "tokenURI",
      "outputs": [
        {
          "internalType": "string",
          "name": "",
          "type": "string"
        }
      ],
      "stateMutability": "view",
      "type": "function"
    },
    {
      "inputs": [
        {
          "internalType": "address",
          "name": "from",
          "type": "address"
        },
        {
          "internalType": "address",
          "name": "to",
          "type": "address"
        },
        {
          "internalType": "uint256",
          "name": "tokenId",
          "type": "uint256"
        }
      ],
      "name": "transferFrom",
      "outputs": [],
      "stateMutability": "nonpayable",
      "type": "function"
    },
    {
      "inputs": [
        {
          "internalType": "address",
          "name": "newOwner",
          "type": "address"
        }
      ],
      "name": "transferOwnership",
      "outputs": [],
      "stateMutability": "nonpayable",
      "type": "function"
    }
  ],
  "bytecode": "0x608060405234801561001057600080fd5b5061274d806100206000396000f3fe608060405234801561001057600080fd5b50600436106101e55760003560e01c80636352211e1161010f578063a22cb465116100a2578063d547741f11610071578063d547741f1461042d578063e985e9c514610440578063f0d74b3c1461047c578063f2fde38b1461048f57600080fd5b8063a22cb465146103cd578063b88d4fde146103e0578063c87b56dd146103f3578063d53913931461040657600080fd5b80638fda356d116100de5780638fda356d146103a257806391d14854146103aa57806395d89b41146103bd578063a217fddf146103c557600080fd5b80636352211e1461036257806370a0823114610375578063715018a6146103885780638da5cb5b1461039057600080fd5b80632a55205a1161018757806342842e0e1161015657806342842e0e14610329578063439766ce1461033c57806355f804b3146103445780635c975abb1461035757600080fd5b80632a55205a146102be5780632f2ff15d146102f057806336568abe1461030357806340d097c31461031657600080fd5b8063081812fc116101c3578063081812fc1461023c578063095ea7b31461026757806323b872dd1461027a578063248a9ca31461028d57600080fd5b806301ffc9a7146101ea57806302fa7c471461021257806306fdde0314610227575b600080fd5b6101fd6101f8366004611e26565b6104a2565b60405190151581526020015b60405180910390f35b610225610220366004611e76565b6104b3565b005b61022f6104c9565b6040516102099190611ef9565b61024f61024a366004611f0c565b61055b565b6040516001600160a01b039091168152602001610209565b610225610275366004611f25565b610582565b610225610288366004611f4f565b61069c565b6102b061029b366004611f0c565b60009081526097602052604090206001015490565b604051908152602001610209565b6102d16102cc366004611f8b565b6106cd565b604080516001600160a01b039093168352602083019190915201610209565b6102256102fe366004611fad565b610779565b610225610311366004611fad565b61079e565b6102b0610324366004611fd0565b610818565b610225610337366004611f4f565b610884565b61022561089f565b610225610352366004611feb565b6108b1565b60fb5460ff166101fd565b61024f610370366004611f0c565b6108c7565b6102b0610383366004611fd0565b610927565b6102256109ad565b61015f546001600160a01b031661024f565b6102256109bf565b6101fd6103b8366004611fad565b6109cf565b61022f6109fa565b6102b0600081565b6102256103db36600461205d565b610a09565b6102256103ee366004612125565b610a14565b61022f610401366004611f0c565b610a4c565b6102b07f9f2df0fed2c77648de5860a4cc508cd0818c85b8b8a1ab4ceeef8d981c8956a681565b61022561043b366004611fad565b610ab3565b6101fd61044e3660046121a1565b6001600160a01b039182166000908152606a6020908152604080832093909416825291909152205460ff1690565b61022561048a3660046121cb565b610ad8565b61022561049d366004611fd0565b610c78565b60006104ad82610cf1565b92915050565b6104bb610d16565b6104c58282610d71565b5050565b6060606580546104d89061223d565b80601f01602080910402602001604051908101604052809291908181526020018280546105049061223d565b80156105515780601f1061052657610100808354040283529160200191610551565b820191906000526020600020905b81548152906001019060200180831161053457829003601f168201915b5050505050905090565b600061056682610e6e565b506000908152606960205260409020546001600160a01b031690565b600061058d826108c7565b9050806001600160a01b0316836001600160a01b0316036105ff5760405162461bcd60e51b815260206004820152602160248201527f4552433732313a20617070726f76616c20746f2063757272656e74206f776e656044820152603960f91b60648201526084015b60405180910390fd5b336001600160a01b038216148061061b575061061b813361044e565b61068d5760405162461bcd60e51b815260206004820152603d60248201527f4552433732313a20617070726f76652063616c6c6572206973206e6f7420746f60448201527f6b656e206f776e6572206f7220617070726f76656420666f7220616c6c00000060648201526084016105f6565b6106978383610ecd565b505050565b6106a63382610f3b565b6106c25760405162461bcd60e51b81526004016105f690612271565b610697838383610fba565b600082815260ca602090815260408083208151808301909252546001600160a01b038116808352600160a01b9091046001600160601b031692820192909252829161074257506040805180820190915260c9546001600160a01b0381168252600160a01b90046001600160601b031660208201525b602081015160009061271090610761906001600160601b0316876122d4565b61076b91906122f3565b915196919550909350505050565b6000828152609760205260409020600101546107948161112b565b6106978383611135565b6001600160a01b038116331461080e5760405162461bcd60e51b815260206004820152602f60248201527f416363657373436f6e74726f6c3a2063616e206f6e6c792072656e6f756e636560448201526e103937b632b9903337b91039b2b63360891b60648201526084016105f6565b6104c582826111bb565b60007f9f2df0fed2c77648de5860a4cc508cd0818c85b8b8a1ab4ceeef8d981c8956a66108448161112b565b61084c611222565b61085461127d565b61019154915061086961019180546001019055565b61087383836112c3565b61087e600161012d55565b50919050565b61069783838360405180602001604052806000815250610a14565b6108a7610d16565b6108af6112e5565b565b6108b9610d16565b610192610697828483612363565b6000818152606760205260408120546001600160a01b0316806104ad5760405162461bcd60e51b8152602060048201526018602482015277115490cdcc8c4e881a5b9d985b1a59081d1bdad95b88125160421b60448201526064016105f6565b60006001600160a01b0382166109915760405162461bcd60e51b815260206004820152602960248201527f4552433732313a2061646472657373207a65726f206973206e6f7420612076616044820152683634b21037bbb732b960b91b60648201526084016105f6565b506001600160a01b031660009081526068602052604090205490565b6109b5610d16565b6108af600061133f565b6109c7610d16565b6108af611392565b60009182526097602090815260408084206001600160a01b0393909316845291905290205460ff1690565b6060606680546104d89061223d565b6104c53383836113cb565b610a1e3383610f3b565b610a3a5760405162461bcd60e51b81526004016105f690612271565b610a4684848484611499565b50505050565b6060610a5782610e6e565b6000610a616114cc565b90506000815111610a815760405180602001604052806000815250610aac565b80610a8b846114dc565b604051602001610a9c929190612424565b6040516020818303038152906040525b9392505050565b600082815260976020526040902060010154610ace8161112b565b61069783836111bb565b600054610100900460ff1615808015610af85750600054600160ff909116105b80610b125750303b158015610b12575060005460ff166001145b610b755760405162461bcd60e51b815260206004820152602e60248201527f496e697469616c697a61626c653a20636f6e747261637420697320616c72656160448201526d191e481a5b9a5d1a585b1a5e995960921b60648201526084016105f6565b6000805460ff191660011790558015610b98576000805461ff0019166101001790555b610be26040518060400160405280600d81526020016c2337b7ba34bab6a83630bcb2b960991b8152506040518060400160405280600381526020016204646560ec1b81525061156f565b610bea6115a0565b610bf26115a0565b610bfa6115c7565b610c026115f6565b610c0a611625565b610192610c178382612453565b50610c23600033611135565b610c2d8484610d71565b8015610a46576000805461ff0019169055604051600181527f7f26b83ff96e1f2b6a682f133852f6798a09c465da95921460cefb38474024989060200160405180910390a150505050565b610c80610d16565b6001600160a01b038116610ce55760405162461bcd60e51b815260206004820152602660248201527f4f776e61626c653a206e6577206f776e657220697320746865207a65726f206160448201526564647265737360d01b60648201526084016105f6565b610cee8161133f565b50565b60006001600160e01b0319821663152a902d60e11b14806104ad57506104ad82611654565b61015f546001600160a01b031633146108af5760405162461bcd60e51b815260206004820181905260248201527f4f776e61626c653a2063616c6c6572206973206e6f7420746865206f776e657260448201526064016105f6565b6127106001600160601b0382161115610ddf5760405162461bcd60e51b815260206004820152602a60248201527f455243323938313a20726f79616c7479206665652077696c6c206578636565646044820152692073616c65507269636560b01b60648201526084016105f6565b6001600160a01b038216610e355760405162461bcd60e51b815260206004820152601960248201527f455243323938313a20696e76616c69642072656365697665720000000000000060448201526064016105f6565b604080518082019091526001600160a01b039092168083526001600160601b039091166020909201829052600160a01b9091021760c955565b6000818152606760205260409020546001600160a01b0316610cee5760405162461bcd60e51b8152602060048201526018602482015277115490cdcc8c4e881a5b9d985b1a59081d1bdad95b88125160421b60448201526064016105f6565b600081815260696020526040902080546001600160a01b0319166001600160a01b0384169081179091558190610f02826108c7565b6001600160a01b03167f8c5be1e5ebec7d5bd14f71427d1e84f3dd0314c0f7b2291e5b200ac8c7c3b92560405160405180910390a45050565b600080610f47836108c7565b9050806001600160a01b0316846001600160a01b03161480610f8e57506001600160a01b038082166000908152606a602090815260408083209388168352929052205460ff165b80610fb25750836001600160a01b0316610fa78461055b565b6001600160a01b0316145b949350505050565b826001600160a01b0316610fcd826108c7565b6001600160a01b031614610ff35760405162461bcd60e51b81526004016105f690612513565b6001600160a01b0382166110555760405162461bcd60e51b8152602060048201526024808201527f4552433732313a207472616e7366657220746f20746865207a65726f206164646044820152637265737360e01b60648201526084016105f6565b6110628383836001611679565b826001600160a01b0316611075826108c7565b6001600160a01b03161461109b5760405162461bcd60e51b81526004016105f690612513565b600081815260696020908152604080832080546001600160a01b03199081169091556001600160a01b0387811680865260688552838620805460001901905590871680865283862080546001019055868652606790945282852080549092168417909155905184937fddf252ad1be2c89b69c2b068fc378daa952ba7f163c4a11628f55a4df523b3ef91a4505050565b610cee8133611701565b61113f82826109cf565b6104c55760008281526097602090815260408083206001600160a01b03851684529091529020805460ff191660011790556111773390565b6001600160a01b0316816001600160a01b0316837f2f8788117e7eff1d82e926ec794901d17c78024a50270940304540a733656f0d60405160405180910390a45050565b6111c582826109cf565b156104c55760008281526097602090815260408083206001600160a01b0385168085529252808320805460ff1916905551339285917ff6391f5c32d9c69d2a47ea670b442974b53935d1edc7fd64eb21e047a839171b9190a45050565b600261012d54036112755760405162461bcd60e51b815260206004820152601f60248201527f5265656e7472616e637947756172643a207265656e7472616e742063616c6c0060448201526064016105f6565b600261012d55565b60fb5460ff16156108af5760405162461bcd60e51b815260206004820152601060248201526f14185d5cd8589b194e881c185d5cd95960821b60448201526064016105f6565b6104c582826040518060200160405280600081525061175a565b600161012d55565b6112ed61127d565b60fb805460ff191660011790557f62e78cea01bee320cd4e420270b5ea74000d11b0c9f74754ebdbfc544b05a2586113223390565b6040516001600160a01b03909116815260200160405180910390a1565b61015f80546001600160a01b038381166001600160a01b0319831681179093556040519116919082907f8be0079c531659141344cd1fd0a4f28419497f9722a3daafe3b4186f6b6457e090600090a35050565b61139a61178d565b60fb805460ff191690557f5db9ee0a495bf2e6ff9c91a7834c1ba4fdd244a5e8aa4e537bd38aeae4b073aa33611322565b816001600160a01b0316836001600160a01b03160361142c5760405162461bcd60e51b815260206004820152601960248201527f4552433732313a20617070726f766520746f2063616c6c65720000000000000060448201526064016105f6565b6001600160a01b038381166000818152606a6020908152604080832094871680845294825291829020805460ff191686151590811790915591519182527f17307eab39ab6107e8899845ad3d59bd9653f200f220920489ca2b5937696c31910160405180910390a3505050565b6114a4848484610fba565b6114b0848484846117d6565b610a465760405162461bcd60e51b81526004016105f690612558565b606061019280546104d89061223d565b606060006114e9836118d7565b600101905060008167ffffffffffffffff81111561150957611509612099565b6040519080825280601f01601f191660200182016040528015611533576020820181803683370190505b5090508181016020015b600019016f181899199a1a9b1b9c1cb0b131b232b360811b600a86061a8153600a850494508461153d57509392505050565b600054610100900460ff166115965760405162461bcd60e51b81526004016105f6906125aa565b6104c582826119af565b600054610100900460ff166108af5760405162461bcd60e51b81526004016105f6906125aa565b600054610100900460ff166115ee5760405162461bcd60e51b81526004016105f6906125aa565b6108af6119ef565b600054610100900460ff1661161d5760405162461bcd60e51b81526004016105f6906125aa565b6108af611a22565b600054610100900460ff1661164c5760405162461bcd60e51b81526004016105f6906125aa565b6108af611a49565b60006001600160e01b03198216637965db0b60e01b14806104ad57506104ad82611a79565b6001811115610a46576001600160a01b038416156116bf576001600160a01b038416600090815260686020526040812080548392906116b99084906125f5565b90915550505b6001600160a01b03831615610a46576001600160a01b038316600090815260686020526040812080548392906116f6908490612608565b909155505050505050565b61170b82826109cf565b6104c55761171881611ac9565b611723836020611adb565b60405160200161173492919061261b565b60408051601f198184030181529082905262461bcd60e51b82526105f691600401611ef9565b6117648383611c77565b61177160008484846117d6565b6106975760405162461bcd60e51b81526004016105f690612558565b60fb5460ff166108af5760405162461bcd60e51b815260206004820152601460248201527314185d5cd8589b194e881b9bdd081c185d5cd95960621b60448201526064016105f6565b60006001600160a01b0384163b156118cc57604051630a85bd0160e11b81526001600160a01b0385169063150b7a029061181a903390899088908890600401612690565b6020604051808303816000875af1925050508015611855575060408051601f3d908101601f19168201909252611852918101906126cd565b60015b6118b2573d808015611883576040519150601f19603f3d011682016040523d82523d6000602084013e611888565b606091505b5080516000036118aa5760405162461bcd60e51b81526004016105f690612558565b805181602001fd5b6001600160e01b031916630a85bd0160e11b149050610fb2565b506001949350505050565b60008072184f03e93ff9f4daa797ed6e38ed64bf6a1f0160401b83106119165772184f03e93ff9f4daa797ed6e38ed64bf6a1f0160401b830492506040015b6d04ee2d6d415b85acef81000000008310611942576d04ee2d6d415b85acef8100000000830492506020015b662386f26fc10000831061196057662386f26fc10000830492506010015b6305f5e1008310611978576305f5e100830492506008015b612710831061198c57612710830492506004015b6064831061199e576064830492506002015b600a83106104ad5760010192915050565b600054610100900460ff166119d65760405162461bcd60e51b81526004016105f6906125aa565b60656119e28382612453565b5060666106978282612453565b600054610100900460ff16611a165760405162461bcd60e51b81526004016105f6906125aa565b60fb805460ff19169055565b600054610100900460ff166112dd5760405162461bcd60e51b81526004016105f6906125aa565b600054610100900460ff16611a705760405162461bcd60e51b81526004016105f6906125aa565b6108af3361133f565b60006001600160e01b031982166380ac58cd60e01b1480611aaa57506001600160e01b03198216635b5e139f60e01b145b806104ad57506301ffc9a760e01b6001600160e01b03198316146104ad565b60606104ad6001600160a01b03831660145b60606000611aea8360026122d4565b611af5906002612608565b67ffffffffffffffff811115611b0d57611b0d612099565b6040519080825280601f01601f191660200182016040528015611b37576020820181803683370190505b509050600360fc1b81600081518110611b5257611b526126ea565b60200101906001600160f81b031916908160001a905350600f60fb1b81600181518110611b8157611b816126ea565b60200101906001600160f81b031916908160001a9053506000611ba58460026122d4565b611bb0906001612608565b90505b6001811115611c28576f181899199a1a9b1b9c1cb0b131b232b360811b85600f1660108110611be457611be46126ea565b1a60f81b828281518110611bfa57611bfa6126ea565b60200101906001600160f81b031916908160001a90535060049490941c93611c2181612700565b9050611bb3565b508315610aac5760405162461bcd60e51b815260206004820181905260248201527f537472696e67733a20686578206c656e67746820696e73756666696369656e7460448201526064016105f6565b6001600160a01b038216611ccd5760405162461bcd60e51b815260206004820181905260248201527f4552433732313a206d696e7420746f20746865207a65726f206164647265737360448201526064016105f6565b6000818152606760205260409020546001600160a01b031615611d325760405162461bcd60e51b815260206004820152601c60248201527f4552433732313a20746f6b656e20616c7265616479206d696e7465640000000060448201526064016105f6565b611d40600083836001611679565b6000818152606760205260409020546001600160a01b031615611da55760405162461bcd60e51b815260206004820152601c60248201527f4552433732313a20746f6b656e20616c7265616479206d696e7465640000000060448201526064016105f6565b6001600160a01b038216600081815260686020908152604080832080546001019055848352606790915280822080546001600160a01b0319168417905551839291907fddf252ad1be2c89b69c2b068fc378daa952ba7f163c4a11628f55a4df523b3ef908290a45050565b6001600160e01b031981168114610cee57600080fd5b600060208284031215611e3857600080fd5b8135610aac81611e10565b80356001600160a01b0381168114611e5a57600080fd5b919050565b80356001600160601b0381168114611e5a57600080fd5b60008060408385031215611e8957600080fd5b611e9283611e43565b9150611ea060208401611e5f565b90509250929050565b60005b83811015611ec4578181015183820152602001611eac565b50506000910152565b60008151808452611ee5816020860160208601611ea9565b601f01601f19169290920160200192915050565b602081526000610aac6020830184611ecd565b600060208284031215611f1e57600080fd5b5035919050565b60008060408385031215611f3857600080fd5b611f4183611e43565b946020939093013593505050565b600080600060608486031215611f6457600080fd5b611f6d84611e43565b9250611f7b60208501611e43565b9150604084013590509250925092565b60008060408385031215611f9e57600080fd5b50508035926020909101359150565b60008060408385031215611fc057600080fd5b82359150611ea060208401611e43565b600060208284031215611fe257600080fd5b610aac82611e43565b60008060208385031215611ffe57600080fd5b823567ffffffffffffffff8082111561201657600080fd5b818501915085601f83011261202a57600080fd5b81358181111561203957600080fd5b86602082850101111561204b57600080fd5b60209290920196919550909350505050565b6000806040838503121561207057600080fd5b61207983611e43565b91506020830135801515811461208e57600080fd5b809150509250929050565b634e487b7160e01b600052604160045260246000fd5b600067ffffffffffffffff808411156120ca576120ca612099565b604051601f8501601f19908116603f011681019082821181831017156120f2576120f2612099565b8160405280935085815286868601111561210b57600080fd5b858560208301376000602087830101525050509392505050565b6000806000806080858703121561213b57600080fd5b61214485611e43565b935061215260208601611e43565b925060408501359150606085013567ffffffffffffffff81111561217557600080fd5b8501601f8101871361218657600080fd5b612195878235602084016120af565b91505092959194509250565b600080604083850312156121b457600080fd5b6121bd83611e43565b9150611ea060208401611e43565b6000806000606084860312156121e057600080fd5b6121e984611e43565b92506121f760208501611e5f565b9150604084013567ffffffffffffffff81111561221357600080fd5b8401601f8101861361222457600080fd5b612233868235602084016120af565b9150509250925092565b600181811c9082168061225157607f821691505b60208210810361087e57634e487b7160e01b600052602260045260246000fd5b6020808252602d908201527f4552433732313a2063616c6c6572206973206e6f7420746f6b656e206f776e6560408201526c1c881bdc88185c1c1c9bdd9959609a1b606082015260800190565b634e487b7160e01b600052601160045260246000fd5b60008160001904831182151516156122ee576122ee6122be565b500290565b60008261231057634e487b7160e01b600052601260045260246000fd5b500490565b601f82111561069757600081815260208120601f850160051c8101602086101561233c5750805b601f850160051c820191505b8181101561235b57828155600101612348565b505050505050565b67ffffffffffffffff83111561237b5761237b612099565b61238f83612389835461223d565b83612315565b6000601f8411600181146123c357600085156123ab5750838201355b600019600387901b1c1916600186901b17835561241d565b600083815260209020601f19861690835b828110156123f457868501358255602094850194600190920191016123d4565b50868210156124115760001960f88860031b161c19848701351681555b505060018560011b0183555b5050505050565b60008351612436818460208801611ea9565b83519083019061244a818360208801611ea9565b01949350505050565b815167ffffffffffffffff81111561246d5761246d612099565b6124818161247b845461223d565b84612315565b602080601f8311600181146124b6576000841561249e5750858301515b600019600386901b1c1916600185901b17855561235b565b600085815260208120601f198616915b828110156124e5578886015182559484019460019091019084016124c6565b50858210156125035787850151600019600388901b60f8161c191681555b5050505050600190811b01905550565b60208082526025908201527f4552433732313a207472616e736665722066726f6d20696e636f72726563742060408201526437bbb732b960d91b606082015260800190565b60208082526032908201527f4552433732313a207472616e7366657220746f206e6f6e20455243373231526560408201527131b2b4bb32b91034b6b83632b6b2b73a32b960711b606082015260800190565b6020808252602b908201527f496e697469616c697a61626c653a20636f6e7472616374206973206e6f74206960408201526a6e697469616c697a696e6760a81b606082015260800190565b818103818111156104ad576104ad6122be565b808201808211156104ad576104ad6122be565b7f416363657373436f6e74726f6c3a206163636f756e7420000000000000000000815260008351612653816017850160208801611ea9565b7001034b99036b4b9b9b4b733903937b6329607d1b6017918401918201528351612684816028840160208801611ea9565b01602801949350505050565b6001600160a01b03858116825284166020820152604081018390526080606082018190526000906126c390830184611ecd565b9695505050505050565b6000602082840312156126df57600080fd5b8151610aac81611e10565b634e487b7160e01b600052603260045260246000fd5b60008161270f5761270f6122be565b50600019019056fea26469706673582212209cff61af1753d8a41eb1c709f6370fe619fd1688ed024297e2a7ae744c81b29764736f6c63430008100033",
  "address": "0xD65f8B2f2Be08564764D6585B4700554b6596Da3",
  "transactionHash": "0xc355c0cc731dfecf7dbc935d9964089149a9ac3703c9b21a87b1c14476ef1159"
}