{
  "contractName": "FootiumPrizeDistributor",
  "abi": [
    {
      "inputs": [
        {
          "internalType": "uint256",
          "name": "amount",
          "type": "uint256"
        }
      ],
      "name": "FailedToSendETH",
      "type": "error"
    },
    {
      "inputs": [],
      "name": "InvalidAccount",
      "type": "error"
    },
    {
      "inputs": [],
      "name": "InvalidERC20MerkleProof",
      "type": "error"
    },
    {
      "inputs": [],
      "name": "InvalidETHMerkleProof",
      "type": "error"
    },
    {
      "anonymous": false,
      "inputs": [
        {
          "indexed": true,
          "internalType": "contract IERC20Upgradeable",
          "name": "token",
          "type": "address"
        },
        {
          "indexed": true,
          "internalType": "address",
          "name": "to",
          "type": "address"
        },
        {
          "indexed": false,
          "internalType": "uint256",
          "name": "value",
          "type": "uint256"
        }
      ],
      "name": "ClaimERC20",
      "type": "event"
    },
    {
      "anonymous": false,
      "inputs": [
        {
          "indexed": true,
          "internalType": "address",
          "name": "to",
          "type": "address"
        },
        {
          "indexed": false,
          "internalType": "uint256",
          "name": "value",
          "type": "uint256"
        }
      ],
      "name": "ClaimETH",
      "type": "event"
    },
    {
      "anonymous": false,
      "inputs": [
        {
          "indexed": false,
          "internalType": "address",
          "name": "sender",
          "type": "address"
        },
        {
          "indexed": false,
          "internalType": "uint256",
          "name": "amount",
          "type": "uint256"
        }
      ],
      "name": "ETHReceived",
      "type": "event"
    },
    {
      "anonymous": false,
      "inputs": [
        {
          "indexed": false,
          "internalType": "uint8",
          "name": "version",
          "type": "uint8"
        }
      ],
      "name": "Initialized",
      "type": "event"
    },
    {
      "anonymous": false,
      "inputs": [
        {
          "indexed": true,
          "internalType": "address",
          "name": "previousOwner",
          "type": "address"
        },
        {
          "indexed": true,
          "internalType": "address",
          "name": "newOwner",
          "type": "address"
        }
      ],
      "name": "OwnershipTransferred",
      "type": "event"
    },
    {
      "anonymous": false,
      "inputs": [
        {
          "indexed": false,
          "internalType": "address",
          "name": "account",
          "type": "address"
        }
      ],
      "name": "Paused",
      "type": "event"
    },
    {
      "anonymous": false,
      "inputs": [
        {
          "indexed": false,
          "internalType": "bytes32",
          "name": "merkleRoot",
          "type": "bytes32"
        }
      ],
      "name": "SetERC20MerkleRoot",
      "type": "event"
    },
    {
      "anonymous": false,
      "inputs": [
        {
          "indexed": false,
          "internalType": "bytes32",
          "name": "merkleRoot",
          "type": "bytes32"
        }
      ],
      "name": "SetETHMerkleRoot",
      "type": "event"
    },
    {
      "anonymous": false,
      "inputs": [
        {
          "indexed": false,
          "internalType": "address",
          "name": "account",
          "type": "address"
        }
      ],
      "name": "Unpaused",
      "type": "event"
    },
    {
      "inputs": [],
      "name": "activateContract",
      "outputs": [],
      "stateMutability": "nonpayable",
      "type": "function"
    },
    {
      "inputs": [
        {
          "internalType": "address",
          "name": "_to",
          "type": "address"
        },
        {
          "internalType": "contract IERC20Upgradeable",
          "name": "_token",
          "type": "address"
        },
        {
          "internalType": "uint256",
          "name": "_amount",
          "type": "uint256"
        },
        {
          "internalType": "bytes32[]",
          "name": "_proof",
          "type": "bytes32[]"
        }
      ],
      "name": "claimERC20Prize",
      "outputs": [],
      "stateMutability": "nonpayable",
      "type": "function"
    },
    {
      "inputs": [
        {
          "internalType": "address",
          "name": "_to",
          "type": "address"
        },
        {
          "internalType": "uint256",
          "name": "_amount",
          "type": "uint256"
        },
        {
          "internalType": "bytes32[]",
          "name": "_proof",
          "type": "bytes32[]"
        }
      ],
      "name": "claimETHPrize",
      "outputs": [],
      "stateMutability": "nonpayable",
      "type": "function"
    },
    {
      "inputs": [],
      "name": "initialize",
      "outputs": [],
      "stateMutability": "nonpayable",
      "type": "function"
    },
    {
      "inputs": [],
      "name": "owner",
      "outputs": [
        {
          "internalType": "address",
          "name": "",
          "type": "address"
        }
      ],
      "stateMutability": "view",
      "type": "function"
    },
    {
      "inputs": [],
      "name": "pauseContract",
      "outputs": [],
      "stateMutability": "nonpayable",
      "type": "function"
    },
    {
      "inputs": [],
      "name": "paused",
      "outputs": [
        {
          "internalType": "bool",
          "name": "",
          "type": "bool"
        }
      ],
      "stateMutability": "view",
      "type": "function"
    },
    {
      "inputs": [],
      "name": "renounceOwnership",
      "outputs": [],
      "stateMutability": "nonpayable",
      "type": "function"
    },
    {
      "inputs": [
        {
          "internalType": "bytes32",
          "name": "_merkleRoot",
          "type": "bytes32"
        }
      ],
      "name": "setERC20MerkleRoot",
      "outputs": [],
      "stateMutability": "nonpayable",
      "type": "function"
    },
    {
      "inputs": [
        {
          "internalType": "bytes32",
          "name": "_merkleRoot",
          "type": "bytes32"
        }
      ],
      "name": "setETHMerkleRoot",
      "outputs": [],
      "stateMutability": "nonpayable",
      "type": "function"
    },
    {
      "inputs": [
        {
          "internalType": "address",
          "name": "newOwner",
          "type": "address"
        }
      ],
      "name": "transferOwnership",
      "outputs": [],
      "stateMutability": "nonpayable",
      "type": "function"
    },
    {
      "stateMutability": "payable",
      "type": "receive"
    }
  ],
  "bytecode": "0x608060405234801561001057600080fd5b50611188806100206000396000f3fe6080604052600436106100a05760003560e01c80638129fc1c116100645780638129fc1c146101785780638da5cb5b1461018d5780638fda356d146101b5578063cd901d51146101ca578063e7c81ecf146101ea578063f2fde38b1461020a57600080fd5b806334a888f6146100e4578063439766ce14610106578063572313571461011b5780635c975abb1461013b578063715018a61461016357600080fd5b366100df57604080513381523460208201527fbfe611b001dfcd411432f7bf0d79b82b4b2ee81511edac123a3403c357fb972a910160405180910390a1005b600080fd5b3480156100f057600080fd5b506101046100ff366004610f02565b61022a565b005b34801561011257600080fd5b5061010461041c565b34801561012757600080fd5b50610104610136366004610f5e565b61042e565b34801561014757600080fd5b5060335460ff1660405190151581526020015b60405180910390f35b34801561016f57600080fd5b50610104610472565b34801561018457600080fd5b50610104610484565b34801561019957600080fd5b506097546040516001600160a01b03909116815260200161015a565b3480156101c157600080fd5b506101046105a1565b3480156101d657600080fd5b506101046101e5366004610f5e565b6105b1565b3480156101f657600080fd5b50610104610205366004610f77565b6105ee565b34801561021657600080fd5b50610104610225366004610fea565b610796565b61023261080c565b61023a610852565b6001600160a01b038416331461026357604051630da30f6560e31b815260040160405180910390fd5b6102d78282808060200260200160405190810160405280939291908181526020018383602002808284376000920191909152505060ca54604080516001600160a01b038b16602082015290810189905290925060600190505b604051602081830303815290604052805190602001206108ab565b6102f45760405163226787a560e11b815260040160405180910390fd5b6001600160a01b038416600090815260cc6020526040812054610317908561101d565b905080156103c8576001600160a01b038516600090815260cc602052604081208054839290610347908490611030565b90915550506040516000906001600160a01b0387169083908381818185875af1925050503d8060008114610397576040519150601f19603f3d011682016040523d82523d6000602084013e61039c565b606091505b50509050806103c657604051630a7edcbf60e01b8152600481018390526024015b60405180910390fd5b505b846001600160a01b03167fd084ab62af65a7871d1f9ab7af6c51a726dcc646d58b728ee8651cbd82dfb45c8260405161040391815260200190565b60405180910390a2506104166001606555565b50505050565b6104246108c8565b61042c610922565b565b6104366108c8565b60c98190556040518181527f7cbabe6b9cbdb0ed9c399d8d067c752024bb84ca61530defb57bbb33600d116e906020015b60405180910390a150565b61047a6108c8565b61042c600061097c565b600054610100900460ff16158080156104a45750600054600160ff909116105b806104be5750303b1580156104be575060005460ff166001145b6105215760405162461bcd60e51b815260206004820152602e60248201527f496e697469616c697a61626c653a20636f6e747261637420697320616c72656160448201526d191e481a5b9a5d1a585b1a5e995960921b60648201526084016103bd565b6000805460ff191660011790558015610544576000805461ff0019166101001790555b61054c6109ce565b6105546109fd565b61055c610a2c565b801561059e576000805461ff0019169055604051600181527f7f26b83ff96e1f2b6a682f133852f6798a09c465da95921460cefb384740249890602001610467565b50565b6105a96108c8565b61042c610a5b565b6105b96108c8565b60ca8190556040518181527ff6e18f68d79607d3c1eed1606cf50e6b2b96d9a4dc98fdb5d58fa9ca144f24bd90602001610467565b6105f661080c565b6105fe610852565b6001600160a01b038516331461062757604051630da30f6560e31b815260040160405180910390fd5b61068f8282808060200260200160405190810160405280939291908181526020018383602002808284376000920191909152505060c954604080516001600160a01b03808c1660208301528c16918101919091526060810189905290925060800190506102bc565b6106ac5760405163341f1d1960e21b815260040160405180910390fd5b6001600160a01b03808516600090815260cb602090815260408083209389168352929052908120546106de908561101d565b90508015610737576001600160a01b03808616600090815260cb60209081526040808320938a168352929052908120805483929061071d908490611030565b9091555061073790506001600160a01b0386168783610a94565b856001600160a01b0316856001600160a01b03167fda6fbab5e075b39ed1a3f1543da029890678b3e7a3a711b6d9e63f2a505e66558360405161077c91815260200190565b60405180910390a35061078f6001606555565b5050505050565b61079e6108c8565b6001600160a01b0381166108035760405162461bcd60e51b815260206004820152602660248201527f4f776e61626c653a206e6577206f776e657220697320746865207a65726f206160448201526564647265737360d01b60648201526084016103bd565b61059e8161097c565b60335460ff161561042c5760405162461bcd60e51b815260206004820152601060248201526f14185d5cd8589b194e881c185d5cd95960821b60448201526064016103bd565b6002606554036108a45760405162461bcd60e51b815260206004820152601f60248201527f5265656e7472616e637947756172643a207265656e7472616e742063616c6c0060448201526064016103bd565b6002606555565b6000826108b88584610aeb565b14949350505050565b6001606555565b6097546001600160a01b0316331461042c5760405162461bcd60e51b815260206004820181905260248201527f4f776e61626c653a2063616c6c6572206973206e6f7420746865206f776e657260448201526064016103bd565b61092a61080c565b6033805460ff191660011790557f62e78cea01bee320cd4e420270b5ea74000d11b0c9f74754ebdbfc544b05a25861095f3390565b6040516001600160a01b03909116815260200160405180910390a1565b609780546001600160a01b038381166001600160a01b0319831681179093556040519116919082907f8be0079c531659141344cd1fd0a4f28419497f9722a3daafe3b4186f6b6457e090600090a35050565b600054610100900460ff166109f55760405162461bcd60e51b81526004016103bd90611043565b61042c610b3a565b600054610100900460ff16610a245760405162461bcd60e51b81526004016103bd90611043565b61042c610b6d565b600054610100900460ff16610a535760405162461bcd60e51b81526004016103bd90611043565b61042c610b94565b610a63610bc4565b6033805460ff191690557f5db9ee0a495bf2e6ff9c91a7834c1ba4fdd244a5e8aa4e537bd38aeae4b073aa3361095f565b604080516001600160a01b038416602482015260448082018490528251808303909101815260649091019091526020810180516001600160e01b031663a9059cbb60e01b179052610ae6908490610c0d565b505050565b600081815b8451811015610b3057610b1c82868381518110610b0f57610b0f61108e565b6020026020010151610cdf565b915080610b28816110a4565b915050610af0565b5090505b92915050565b600054610100900460ff16610b615760405162461bcd60e51b81526004016103bd90611043565b6033805460ff19169055565b600054610100900460ff166108c15760405162461bcd60e51b81526004016103bd90611043565b600054610100900460ff16610bbb5760405162461bcd60e51b81526004016103bd90611043565b61042c3361097c565b60335460ff1661042c5760405162461bcd60e51b815260206004820152601460248201527314185d5cd8589b194e881b9bdd081c185d5cd95960621b60448201526064016103bd565b6000610c62826040518060400160405280602081526020017f5361666545524332303a206c6f772d6c6576656c2063616c6c206661696c6564815250856001600160a01b0316610d119092919063ffffffff16565b805190915015610ae65780806020019051810190610c8091906110bd565b610ae65760405162461bcd60e51b815260206004820152602a60248201527f5361666545524332303a204552433230206f7065726174696f6e20646964206e6044820152691bdd081cdd58d8d9595960b21b60648201526084016103bd565b6000818310610cfb576000828152602084905260409020610d0a565b60008381526020839052604090205b9392505050565b6060610d208484600085610d28565b949350505050565b606082471015610d895760405162461bcd60e51b815260206004820152602660248201527f416464726573733a20696e73756666696369656e742062616c616e636520666f6044820152651c8818d85b1b60d21b60648201526084016103bd565b600080866001600160a01b03168587604051610da59190611103565b60006040518083038185875af1925050503d8060008114610de2576040519150601f19603f3d011682016040523d82523d6000602084013e610de7565b606091505b5091509150610df887838387610e03565b979650505050505050565b60608315610e72578251600003610e6b576001600160a01b0385163b610e6b5760405162461bcd60e51b815260206004820152601d60248201527f416464726573733a2063616c6c20746f206e6f6e2d636f6e747261637400000060448201526064016103bd565b5081610d20565b610d208383815115610e875781518083602001fd5b8060405162461bcd60e51b81526004016103bd919061111f565b6001600160a01b038116811461059e57600080fd5b60008083601f840112610ec857600080fd5b50813567ffffffffffffffff811115610ee057600080fd5b6020830191508360208260051b8501011115610efb57600080fd5b9250929050565b60008060008060608587031215610f1857600080fd5b8435610f2381610ea1565b935060208501359250604085013567ffffffffffffffff811115610f4657600080fd5b610f5287828801610eb6565b95989497509550505050565b600060208284031215610f7057600080fd5b5035919050565b600080600080600060808688031215610f8f57600080fd5b8535610f9a81610ea1565b94506020860135610faa81610ea1565b935060408601359250606086013567ffffffffffffffff811115610fcd57600080fd5b610fd988828901610eb6565b969995985093965092949392505050565b600060208284031215610ffc57600080fd5b8135610d0a81610ea1565b634e487b7160e01b600052601160045260246000fd5b81810381811115610b3457610b34611007565b80820180821115610b3457610b34611007565b6020808252602b908201527f496e697469616c697a61626c653a20636f6e7472616374206973206e6f74206960408201526a6e697469616c697a696e6760a81b606082015260800190565b634e487b7160e01b600052603260045260246000fd5b6000600182016110b6576110b6611007565b5060010190565b6000602082840312156110cf57600080fd5b81518015158114610d0a57600080fd5b60005b838110156110fa5781810151838201526020016110e2565b50506000910152565b600082516111158184602087016110df565b9190910192915050565b602081526000825180602084015261113e8160408501602087016110df565b601f01601f1916919091016040019291505056fea26469706673582212206747c16a5b7130906766dd8027bec62b2030403b45299a052cd439b1ffc8947064736f6c63430008100033",
  "address": "0x17E35004B512377c53fd7b7AA54B4366988d49Dd",
  "transactionHash": "0x2433c9a0722df4440f5389556013ecf6c4ef996515f923a4a4f978101917b15c"
}