{
  "contractName": "FootiumAcademy",
  "abi": [
    {
      "inputs": [
        {
          "internalType": "uint256",
          "name": "amount",
          "type": "uint256"
        }
      ],
      "name": "FailedToSendETH",
      "type": "error"
    },
    {
      "inputs": [
        {
          "internalType": "uint256",
          "name": "clubId",
          "type": "uint256"
        },
        {
          "internalType": "address",
          "name": "sender",
          "type": "address"
        }
      ],
      "name": "NotClubOwner",
      "type": "error"
    },
    {
      "anonymous": false,
      "inputs": [
        {
          "indexed": true,
          "internalType": "uint256",
          "name": "clubId",
          "type": "uint256"
        },
        {
          "indexed": true,
          "internalType": "uint256",
          "name": "assetId",
          "type": "uint256"
        },
        {
          "indexed": false,
          "internalType": "string",
          "name": "playerId",
          "type": "string"
        },
        {
          "indexed": false,
          "internalType": "uint256",
          "name": "mintPrice",
          "type": "uint256"
        }
      ],
      "name": "AcademyPlayerMinted",
      "type": "event"
    },
    {
      "anonymous": false,
      "inputs": [
        {
          "indexed": false,
          "internalType": "bytes32",
          "name": "merkleRoot",
          "type": "bytes32"
        }
      ],
      "name": "ChangedMerkleRoot",
      "type": "event"
    },
    {
      "anonymous": false,
      "inputs": [
        {
          "indexed": false,
          "internalType": "uint8",
          "name": "version",
          "type": "uint8"
        }
      ],
      "name": "Initialized",
      "type": "event"
    },
    {
      "anonymous": false,
      "inputs": [
        {
          "indexed": true,
          "internalType": "address",
          "name": "previousOwner",
          "type": "address"
        },
        {
          "indexed": true,
          "internalType": "address",
          "name": "newOwner",
          "type": "address"
        }
      ],
      "name": "OwnershipTransferred",
      "type": "event"
    },
    {
      "anonymous": false,
      "inputs": [
        {
          "indexed": false,
          "internalType": "address",
          "name": "account",
          "type": "address"
        }
      ],
      "name": "Paused",
      "type": "event"
    },
    {
      "anonymous": false,
      "inputs": [
        {
          "indexed": false,
          "internalType": "address",
          "name": "account",
          "type": "address"
        }
      ],
      "name": "Unpaused",
      "type": "event"
    },
    {
      "inputs": [],
      "name": "activateContract",
      "outputs": [],
      "stateMutability": "nonpayable",
      "type": "function"
    },
    {
      "inputs": [
        {
          "internalType": "bytes32",
          "name": "merkleRoot",
          "type": "bytes32"
        }
      ],
      "name": "changeMerkleRoot",
      "outputs": [],
      "stateMutability": "nonpayable",
      "type": "function"
    },
    {
      "inputs": [
        {
          "internalType": "contract IFootiumPlayer",
          "name": "footiumPlayer",
          "type": "address"
        },
        {
          "internalType": "contract IFootiumClub",
          "name": "footiumClub",
          "type": "address"
        },
        {
          "internalType": "address",
          "name": "prizeDistributorAddress",
          "type": "address"
        },
        {
          "internalType": "bytes32",
          "name": "merkleRoot",
          "type": "bytes32"
        }
      ],
      "name": "initialize",
      "outputs": [],
      "stateMutability": "nonpayable",
      "type": "function"
    },
    {
      "inputs": [
        {
          "internalType": "uint256",
          "name": "clubId",
          "type": "uint256"
        },
        {
          "internalType": "string",
          "name": "playerId",
          "type": "string"
        },
        {
          "internalType": "bytes32[]",
          "name": "mintProof",
          "type": "bytes32[]"
        }
      ],
      "name": "mintPlayer",
      "outputs": [],
      "stateMutability": "payable",
      "type": "function"
    },
    {
      "inputs": [],
      "name": "owner",
      "outputs": [
        {
          "internalType": "address",
          "name": "",
          "type": "address"
        }
      ],
      "stateMutability": "view",
      "type": "function"
    },
    {
      "inputs": [],
      "name": "pauseContract",
      "outputs": [],
      "stateMutability": "nonpayable",
      "type": "function"
    },
    {
      "inputs": [],
      "name": "paused",
      "outputs": [
        {
          "internalType": "bool",
          "name": "",
          "type": "bool"
        }
      ],
      "stateMutability": "view",
      "type": "function"
    },
    {
      "inputs": [],
      "name": "renounceOwnership",
      "outputs": [],
      "stateMutability": "nonpayable",
      "type": "function"
    },
    {
      "inputs": [
        {
          "internalType": "address",
          "name": "newOwner",
          "type": "address"
        }
      ],
      "name": "transferOwnership",
      "outputs": [],
      "stateMutability": "nonpayable",
      "type": "function"
    },
    {
      "inputs": [],
      "name": "withdraw",
      "outputs": [],
      "stateMutability": "nonpayable",
      "type": "function"
    }
  ],
  "bytecode": "0x608060405234801561001057600080fd5b50610f34806100206000396000f3fe6080604052600436106100915760003560e01c80638da5cb5b116100595780638da5cb5b1461011f5780638fda356d1461014757806397c226ad1461015c578063ebcea3db1461016f578063f2fde38b1461018f57600080fd5b80633ccfd60b14610096578063439766ce146100ad5780635c975abb146100c257806363acc14d146100ea578063715018a61461010a575b600080fd5b3480156100a257600080fd5b506100ab6101af565b005b3480156100b957600080fd5b506100ab610250565b3480156100ce57600080fd5b5060335460ff1660405190151581526020015b60405180910390f35b3480156100f657600080fd5b506100ab610105366004610c5c565b610262565b34801561011657600080fd5b506100ab6103c9565b34801561012b57600080fd5b506097546040516001600160a01b0390911681526020016100e1565b34801561015357600080fd5b506100ab6103db565b6100ab61016a366004610cad565b6103eb565b34801561017b57600080fd5b506100ab61018a366004610d82565b6107b4565b34801561019b57600080fd5b506100ab6101aa366004610d9b565b6107f7565b6101b761086d565b47801561024d5760006101d26097546001600160a01b031690565b6001600160a01b03168260405160006040518083038185875af1925050503d806000811461021c576040519150601f19603f3d011682016040523d82523d6000602084013e610221565b606091505b505090508061024b57604051630a7edcbf60e01b8152600481018390526024015b60405180910390fd5b505b50565b61025861086d565b6102606108c7565b565b600054610100900460ff16158080156102825750600054600160ff909116105b8061029c5750303b15801561029c575060005460ff166001145b6102ff5760405162461bcd60e51b815260206004820152602e60248201527f496e697469616c697a61626c653a20636f6e747261637420697320616c72656160448201526d191e481a5b9a5d1a585b1a5e995960921b6064820152608401610242565b6000805460ff191660011790558015610322576000805461ff0019166101001790555b61032a610921565b610332610950565b61033a61097f565b60c980546001600160a01b038088166001600160a01b03199283161790925560ca805487841690831617905560cb80549286169290911691909117905560cd82905580156103c2576000805461ff0019169055604051600181527f7f26b83ff96e1f2b6a682f133852f6798a09c465da95921460cefb38474024989060200160405180910390a15b5050505050565b6103d161086d565b61026060006109ae565b6103e361086d565b610260610a00565b6103f3610a39565b6103fb610a7f565b60cc848460405161040d929190610db8565b9081526040519081900360200190205460ff16156104655760405162461bcd60e51b8152602060048201526015602482015274141b185e595c88185b1c9958591e481b5a5b9d1959605a1b6044820152606401610242565b60ca546040516331a9108f60e11b8152600481018790526001600160a01b0390911690636352211e90602401602060405180830381865afa1580156104ae573d6000803e3d6000fd5b505050506040513d601f19601f820116820180604052508101906104d29190610dc8565b6001600160a01b0316336001600160a01b03161461050c576040516312b2661360e11b815260048101869052336024820152604401610242565b6000858585346040516020016105259493929190610e0e565b60408051601f198184030181528282528051602091820120908301520160405160208183030381529060405280519060200120905061059b8383808060200260200160405190810160405280939291908181526020018383602002808284376000920191909152505060cd549150849050610ad8565b6105d75760405162461bcd60e51b815260206004820152600d60248201526c24b73b30b634b210383937b7b360991b6044820152606401610242565b60c95460ca546040516331a9108f60e11b8152600481018990526000926001600160a01b03908116926340d097c392911690636352211e90602401602060405180830381865afa15801561062f573d6000803e3d6000fd5b505050506040513d601f19601f820116820180604052508101906106539190610dc8565b6040516001600160e01b031960e084901b1681526001600160a01b0390911660048201526024016020604051808303816000875af1158015610699573d6000803e3d6000fd5b505050506040513d601f19601f820116820180604052508101906106bd9190610e39565b9050600160cc87876040516106d3929190610db8565b908152604051908190036020018120805492151560ff1990931692909217909155819088907f7dffed79a4cbaf3fae41524198d0e1fa51f13d87412e9b1ec3f80e6c7866ebd590610729908a908a903490610e52565b60405180910390a360cb546040516000916001600160a01b03169034908381818185875af1925050503d806000811461077e576040519150601f19603f3d011682016040523d82523d6000602084013e610783565b606091505b50509050806107a757604051630a7edcbf60e01b8152346004820152602401610242565b5050506103c26001606555565b6107bc61086d565b60cd8190556040518181527f0e1bbf4a5121dc38c30347803ba96877bf9b2308024a3aef59e3c494fb8fef569060200160405180910390a150565b6107ff61086d565b6001600160a01b0381166108645760405162461bcd60e51b815260206004820152602660248201527f4f776e61626c653a206e6577206f776e657220697320746865207a65726f206160448201526564647265737360d01b6064820152608401610242565b61024d816109ae565b6097546001600160a01b031633146102605760405162461bcd60e51b815260206004820181905260248201527f4f776e61626c653a2063616c6c6572206973206e6f7420746865206f776e65726044820152606401610242565b6108cf610a39565b6033805460ff191660011790557f62e78cea01bee320cd4e420270b5ea74000d11b0c9f74754ebdbfc544b05a2586109043390565b6040516001600160a01b03909116815260200160405180910390a1565b600054610100900460ff166109485760405162461bcd60e51b815260040161024290610e76565b610260610af5565b600054610100900460ff166109775760405162461bcd60e51b815260040161024290610e76565b610260610b28565b600054610100900460ff166109a65760405162461bcd60e51b815260040161024290610e76565b610260610b4f565b609780546001600160a01b038381166001600160a01b0319831681179093556040519116919082907f8be0079c531659141344cd1fd0a4f28419497f9722a3daafe3b4186f6b6457e090600090a35050565b610a08610b7f565b6033805460ff191690557f5db9ee0a495bf2e6ff9c91a7834c1ba4fdd244a5e8aa4e537bd38aeae4b073aa33610904565b60335460ff16156102605760405162461bcd60e51b815260206004820152601060248201526f14185d5cd8589b194e881c185d5cd95960821b6044820152606401610242565b600260655403610ad15760405162461bcd60e51b815260206004820152601f60248201527f5265656e7472616e637947756172643a207265656e7472616e742063616c6c006044820152606401610242565b6002606555565b600082610ae58584610bc8565b14949350505050565b6001606555565b600054610100900460ff16610b1c5760405162461bcd60e51b815260040161024290610e76565b6033805460ff19169055565b600054610100900460ff16610aee5760405162461bcd60e51b815260040161024290610e76565b600054610100900460ff16610b765760405162461bcd60e51b815260040161024290610e76565b610260336109ae565b60335460ff166102605760405162461bcd60e51b815260206004820152601460248201527314185d5cd8589b194e881b9bdd081c185d5cd95960621b6044820152606401610242565b600081815b8451811015610c0d57610bf982868381518110610bec57610bec610ec1565b6020026020010151610c15565b915080610c0581610ed7565b915050610bcd565b509392505050565b6000818310610c31576000828152602084905260409020610c40565b60008381526020839052604090205b9392505050565b6001600160a01b038116811461024d57600080fd5b60008060008060808587031215610c7257600080fd5b8435610c7d81610c47565b93506020850135610c8d81610c47565b92506040850135610c9d81610c47565b9396929550929360600135925050565b600080600080600060608688031215610cc557600080fd5b85359450602086013567ffffffffffffffff80821115610ce457600080fd5b818801915088601f830112610cf857600080fd5b813581811115610d0757600080fd5b896020828501011115610d1957600080fd5b602083019650809550506040880135915080821115610d3757600080fd5b818801915088601f830112610d4b57600080fd5b813581811115610d5a57600080fd5b8960208260051b8501011115610d6f57600080fd5b9699959850939650602001949392505050565b600060208284031215610d9457600080fd5b5035919050565b600060208284031215610dad57600080fd5b8135610c4081610c47565b8183823760009101908152919050565b600060208284031215610dda57600080fd5b8151610c4081610c47565b81835281816020850137506000828201602090810191909152601f909101601f19169091010190565b848152606060208201526000610e28606083018587610de5565b905082604083015295945050505050565b600060208284031215610e4b57600080fd5b5051919050565b604081526000610e66604083018587610de5565b9050826020830152949350505050565b6020808252602b908201527f496e697469616c697a61626c653a20636f6e7472616374206973206e6f74206960408201526a6e697469616c697a696e6760a81b606082015260800190565b634e487b7160e01b600052603260045260246000fd5b600060018201610ef757634e487b7160e01b600052601160045260246000fd5b506001019056fea2646970667358221220c78f61773d870fb1e5274393629ef876f24e8bf614bcd329f2dff6618bc7e9c064736f6c63430008100033",
  "address": "0x8aC94bF0aFD221422f0990206a96c819D705872A",
  "transactionHash": "0x196fe8c4df4bb00c7b65fcb36bf8e41484f4a323b78afe21eebf39abb0b9ba59"
}