{
  "contractName": "FootiumClubMinter",
  "abi": [
    {
      "anonymous": false,
      "inputs": [
        {
          "indexed": true,
          "internalType": "uint256",
          "name": "clubId",
          "type": "uint256"
        },
        {
          "indexed": true,
          "internalType": "uint256",
          "name": "index",
          "type": "uint256"
        },
        {
          "indexed": false,
          "internalType": "uint256",
          "name": "playerId",
          "type": "uint256"
        },
        {
          "indexed": false,
          "internalType": "address",
          "name": "owner",
          "type": "address"
        }
      ],
      "name": "InitialPlayerMinted",
      "type": "event"
    },
    {
      "anonymous": false,
      "inputs": [
        {
          "indexed": false,
          "internalType": "uint8",
          "name": "version",
          "type": "uint8"
        }
      ],
      "name": "Initialized",
      "type": "event"
    },
    {
      "anonymous": false,
      "inputs": [
        {
          "indexed": true,
          "internalType": "address",
          "name": "previousOwner",
          "type": "address"
        },
        {
          "indexed": true,
          "internalType": "address",
          "name": "newOwner",
          "type": "address"
        }
      ],
      "name": "OwnershipTransferred",
      "type": "event"
    },
    {
      "inputs": [],
      "name": "footiumClub",
      "outputs": [
        {
          "internalType": "contract IFootiumClub",
          "name": "",
          "type": "address"
        }
      ],
      "stateMutability": "view",
      "type": "function"
    },
    {
      "inputs": [],
      "name": "footiumPlayer",
      "outputs": [
        {
          "internalType": "contract IFootiumPlayer",
          "name": "",
          "type": "address"
        }
      ],
      "stateMutability": "view",
      "type": "function"
    },
    {
      "inputs": [
        {
          "internalType": "contract IFootiumPlayer",
          "name": "_footiumPlayer",
          "type": "address"
        },
        {
          "internalType": "contract IFootiumClub",
          "name": "_footiumClub",
          "type": "address"
        }
      ],
      "name": "initialize",
      "outputs": [],
      "stateMutability": "nonpayable",
      "type": "function"
    },
    {
      "inputs": [
        {
          "internalType": "address",
          "name": "to",
          "type": "address"
        },
        {
          "internalType": "uint256",
          "name": "tokenId",
          "type": "uint256"
        }
      ],
      "name": "mint",
      "outputs": [],
      "stateMutability": "nonpayable",
      "type": "function"
    },
    {
      "inputs": [],
      "name": "owner",
      "outputs": [
        {
          "internalType": "address",
          "name": "",
          "type": "address"
        }
      ],
      "stateMutability": "view",
      "type": "function"
    },
    {
      "inputs": [],
      "name": "renounceOwnership",
      "outputs": [],
      "stateMutability": "nonpayable",
      "type": "function"
    },
    {
      "inputs": [
        {
          "internalType": "contract IFootiumClub",
          "name": "_footiumClub",
          "type": "address"
        }
      ],
      "name": "setClubAddress",
      "outputs": [],
      "stateMutability": "nonpayable",
      "type": "function"
    },
    {
      "inputs": [
        {
          "internalType": "contract IFootiumPlayer",
          "name": "_footiumPlayer",
          "type": "address"
        }
      ],
      "name": "setPlayerAddress",
      "outputs": [],
      "stateMutability": "nonpayable",
      "type": "function"
    },
    {
      "inputs": [
        {
          "internalType": "address",
          "name": "newOwner",
          "type": "address"
        }
      ],
      "name": "transferOwnership",
      "outputs": [],
      "stateMutability": "nonpayable",
      "type": "function"
    }
  ],
  "bytecode": "0x608060405234801561001057600080fd5b50610792806100206000396000f3fe608060405234801561001057600080fd5b50600436106100935760003560e01c80634fbdc5bb116100665780634fbdc5bb14610102578063715018a6146101155780638da5cb5b1461011d578063c5bfffc71461012e578063f2fde38b1461014157600080fd5b8063339e1cfb146100985780633b2c5f36146100ad57806340c10f19146100dc578063485cc955146100ef575b600080fd5b6100ab6100a6366004610652565b610154565b005b6065546100c0906001600160a01b031681565b6040516001600160a01b03909116815260200160405180910390f35b6100ab6100ea366004610676565b61017e565b6100ab6100fd3660046106a2565b610334565b6100ab610110366004610652565b61047b565b6100ab6104a5565b6033546001600160a01b03166100c0565b6066546100c0906001600160a01b031681565b6100ab61014f366004610652565b6104b9565b61015c610532565b606580546001600160a01b0319166001600160a01b0392909216919091179055565b610186610532565b606654604051632851206560e21b81526001600160a01b038481166004830152602482018490529091169063a144819490604401600060405180830381600087803b1580156101d457600080fd5b505af11580156101e8573d6000803e3d6000fd5b5050505060005b601481101561032f576065546066546040516331a9108f60e11b8152600481018590526000926001600160a01b03908116926340d097c392911690636352211e90602401602060405180830381865afa158015610250573d6000803e3d6000fd5b505050506040513d601f19601f8201168201806040525081019061027491906106db565b6040516001600160e01b031960e084901b1681526001600160a01b0390911660048201526024016020604051808303816000875af11580156102ba573d6000803e3d6000fd5b505050506040513d601f19601f820116820180604052508101906102de91906106f8565b604080518281526001600160a01b0387166020820152919250839185917f61eb9d2b7a3d045da9a963fa42d06112957939bc99b8a36b31744231d207b15a910160405180910390a3506001016101ef565b505050565b600054610100900460ff16158080156103545750600054600160ff909116105b8061036e5750303b15801561036e575060005460ff166001145b6103d65760405162461bcd60e51b815260206004820152602e60248201527f496e697469616c697a61626c653a20636f6e747261637420697320616c72656160448201526d191e481a5b9a5d1a585b1a5e995960921b60648201526084015b60405180910390fd5b6000805460ff1916600117905580156103f9576000805461ff0019166101001790555b61040161058c565b606580546001600160a01b038086166001600160a01b0319928316179092556066805492851692909116919091179055801561032f576000805461ff0019169055604051600181527f7f26b83ff96e1f2b6a682f133852f6798a09c465da95921460cefb38474024989060200160405180910390a1505050565b610483610532565b606680546001600160a01b0319166001600160a01b0392909216919091179055565b6104ad610532565b6104b760006105bb565b565b6104c1610532565b6001600160a01b0381166105265760405162461bcd60e51b815260206004820152602660248201527f4f776e61626c653a206e6577206f776e657220697320746865207a65726f206160448201526564647265737360d01b60648201526084016103cd565b61052f816105bb565b50565b6033546001600160a01b031633146104b75760405162461bcd60e51b815260206004820181905260248201527f4f776e61626c653a2063616c6c6572206973206e6f7420746865206f776e657260448201526064016103cd565b600054610100900460ff166105b35760405162461bcd60e51b81526004016103cd90610711565b6104b761060d565b603380546001600160a01b038381166001600160a01b0319831681179093556040519116919082907f8be0079c531659141344cd1fd0a4f28419497f9722a3daafe3b4186f6b6457e090600090a35050565b600054610100900460ff166106345760405162461bcd60e51b81526004016103cd90610711565b6104b7336105bb565b6001600160a01b038116811461052f57600080fd5b60006020828403121561066457600080fd5b813561066f8161063d565b9392505050565b6000806040838503121561068957600080fd5b82356106948161063d565b946020939093013593505050565b600080604083850312156106b557600080fd5b82356106c08161063d565b915060208301356106d08161063d565b809150509250929050565b6000602082840312156106ed57600080fd5b815161066f8161063d565b60006020828403121561070a57600080fd5b5051919050565b6020808252602b908201527f496e697469616c697a61626c653a20636f6e7472616374206973206e6f74206960408201526a6e697469616c697a696e6760a81b60608201526080019056fea26469706673582212208f81eaa57f6a92cddc8236e4a967ed9269c4c73cd5a597af6f00f62735e747e064736f6c63430008100033",
  "address": "0x57bF18189D3AE6037a0794bD6f2B7BCE5b5cfD9b",
  "transactionHash": "0xc5503082ce27e7c9bbf54f978014c56b7b345342bc2ab46643a728f85d1a6958"
}