{
  "contractName": "FootiumGeneralPaymentContract",
  "abi": [
    {
      "inputs": [
        {
          "internalType": "uint256",
          "name": "amount",
          "type": "uint256"
        }
      ],
      "name": "FailedToSendETH",
      "type": "error"
    },
    {
      "inputs": [
        {
          "internalType": "uint256",
          "name": "amount",
          "type": "uint256"
        }
      ],
      "name": "IncorrectETHAmount",
      "type": "error"
    },
    {
      "inputs": [
        {
          "internalType": "uint256",
          "name": "clubId",
          "type": "uint256"
        },
        {
          "internalType": "address",
          "name": "sender",
          "type": "address"
        }
      ],
      "name": "NotClubOwner",
      "type": "error"
    },
    {
      "anonymous": false,
      "inputs": [
        {
          "indexed": false,
          "internalType": "uint8",
          "name": "version",
          "type": "uint8"
        }
      ],
      "name": "Initialized",
      "type": "event"
    },
    {
      "anonymous": false,
      "inputs": [
        {
          "indexed": true,
          "internalType": "address",
          "name": "previousOwner",
          "type": "address"
        },
        {
          "indexed": true,
          "internalType": "address",
          "name": "newOwner",
          "type": "address"
        }
      ],
      "name": "OwnershipTransferred",
      "type": "event"
    },
    {
      "anonymous": false,
      "inputs": [
        {
          "indexed": false,
          "internalType": "address",
          "name": "account",
          "type": "address"
        }
      ],
      "name": "Paused",
      "type": "event"
    },
    {
      "anonymous": false,
      "inputs": [
        {
          "indexed": true,
          "internalType": "uint256",
          "name": "clubId",
          "type": "uint256"
        },
        {
          "indexed": true,
          "internalType": "uint256",
          "name": "amount",
          "type": "uint256"
        },
        {
          "indexed": false,
          "internalType": "string",
          "name": "message",
          "type": "string"
        }
      ],
      "name": "PaymentMade",
      "type": "event"
    },
    {
      "anonymous": false,
      "inputs": [
        {
          "indexed": true,
          "internalType": "address",
          "name": "paymentReceiverAddress",
          "type": "address"
        }
      ],
      "name": "PaymentReceiverUpdated",
      "type": "event"
    },
    {
      "anonymous": false,
      "inputs": [
        {
          "indexed": false,
          "internalType": "address",
          "name": "account",
          "type": "address"
        }
      ],
      "name": "Unpaused",
      "type": "event"
    },
    {
      "inputs": [],
      "name": "activateContract",
      "outputs": [],
      "stateMutability": "nonpayable",
      "type": "function"
    },
    {
      "inputs": [],
      "name": "footiumClub",
      "outputs": [
        {
          "internalType": "contract IFootiumClub",
          "name": "",
          "type": "address"
        }
      ],
      "stateMutability": "view",
      "type": "function"
    },
    {
      "inputs": [
        {
          "internalType": "address",
          "name": "_paymentReceiverAddress",
          "type": "address"
        },
        {
          "internalType": "contract IFootiumClub",
          "name": "_footiumClub",
          "type": "address"
        }
      ],
      "name": "initialize",
      "outputs": [],
      "stateMutability": "nonpayable",
      "type": "function"
    },
    {
      "inputs": [
        {
          "internalType": "uint256",
          "name": "_clubId",
          "type": "uint256"
        },
        {
          "internalType": "string",
          "name": "_message",
          "type": "string"
        }
      ],
      "name": "makePayment",
      "outputs": [],
      "stateMutability": "payable",
      "type": "function"
    },
    {
      "inputs": [],
      "name": "owner",
      "outputs": [
        {
          "internalType": "address",
          "name": "",
          "type": "address"
        }
      ],
      "stateMutability": "view",
      "type": "function"
    },
    {
      "inputs": [],
      "name": "pauseContract",
      "outputs": [],
      "stateMutability": "nonpayable",
      "type": "function"
    },
    {
      "inputs": [],
      "name": "paused",
      "outputs": [
        {
          "internalType": "bool",
          "name": "",
          "type": "bool"
        }
      ],
      "stateMutability": "view",
      "type": "function"
    },
    {
      "inputs": [],
      "name": "paymentReceiverAddress",
      "outputs": [
        {
          "internalType": "address",
          "name": "",
          "type": "address"
        }
      ],
      "stateMutability": "view",
      "type": "function"
    },
    {
      "inputs": [],
      "name": "renounceOwnership",
      "outputs": [],
      "stateMutability": "nonpayable",
      "type": "function"
    },
    {
      "inputs": [
        {
          "internalType": "address",
          "name": "_paymentReceiverAddress",
          "type": "address"
        }
      ],
      "name": "setPaymentReceiverAddress",
      "outputs": [],
      "stateMutability": "nonpayable",
      "type": "function"
    },
    {
      "inputs": [
        {
          "internalType": "address",
          "name": "newOwner",
          "type": "address"
        }
      ],
      "name": "transferOwnership",
      "outputs": [],
      "stateMutability": "nonpayable",
      "type": "function"
    }
  ],
  "bytecode": "0x608060405234801561001057600080fd5b50610ae0806100206000396000f3fe60806040526004361061009c5760003560e01c8063715018a611610064578063715018a6146101585780638da5cb5b1461016d5780638fda356d1461018b578063c5bfffc7146101a0578063c8ae3d5d146101c0578063f2fde38b146101d357600080fd5b80630d34bf3c146100a157806318a99638146100de578063439766ce14610100578063485cc955146101155780635c975abb14610135575b600080fd5b3480156100ad57600080fd5b5060ca546100c1906001600160a01b031681565b6040516001600160a01b0390911681526020015b60405180910390f35b3480156100ea57600080fd5b506100fe6100f936600461093a565b6101f3565b005b34801561010c57600080fd5b506100fe610245565b34801561012157600080fd5b506100fe61013036600461095e565b610257565b34801561014157600080fd5b5060335460ff1660405190151581526020016100d5565b34801561016457600080fd5b506100fe6103af565b34801561017957600080fd5b506097546001600160a01b03166100c1565b34801561019757600080fd5b506100fe6103c1565b3480156101ac57600080fd5b5060c9546100c1906001600160a01b031681565b6100fe6101ce366004610997565b6103d1565b3480156101df57600080fd5b506100fe6101ee36600461093a565b610567565b6101fb6105e0565b60ca80546001600160a01b0319166001600160a01b0383169081179091556040517f6cfddd24d2afc1b9f31d51f0ef77029fdde044799f0a87a2a09b7673b609742290600090a250565b61024d6105e0565b61025561063a565b565b600054610100900460ff16158080156102775750600054600160ff909116105b806102915750303b158015610291575060005460ff166001145b6102f95760405162461bcd60e51b815260206004820152602e60248201527f496e697469616c697a61626c653a20636f6e747261637420697320616c72656160448201526d191e481a5b9a5d1a585b1a5e995960921b60648201526084015b60405180910390fd5b6000805460ff19166001179055801561031c576000805461ff0019166101001790555b610324610694565b61032c6106c3565b6103346106f2565b60ca80546001600160a01b038086166001600160a01b03199283161790925560c980549285169290911691909117905580156103aa576000805461ff0019169055604051600181527f7f26b83ff96e1f2b6a682f133852f6798a09c465da95921460cefb38474024989060200160405180910390a15b505050565b6103b76105e0565b6102556000610721565b6103c96105e0565b610255610773565b6103d96107ac565b6103e16107f2565b60c9546040516331a9108f60e11b8152600481018590526001600160a01b0390911690636352211e90602401602060405180830381865afa15801561042a573d6000803e3d6000fd5b505050506040513d601f19601f8201168201806040525081019061044e9190610a13565b6001600160a01b0316336001600160a01b031614610488576040516312b2661360e11b8152600481018490523360248201526044016102f0565b600034116104ab5760405163bd3d1d3d60e01b81523460048201526024016102f0565b60ca546040516000916001600160a01b03169034908381818185875af1925050503d80600081146104f8576040519150601f19603f3d011682016040523d82523d6000602084013e6104fd565b606091505b505090508061052157604051630a7edcbf60e01b81523460048201526024016102f0565b34847fbd02484ec31c0e6446d7d63dd0c088974a6b7c2ef03cd9c973920b5b087cabc48585604051610554929190610a30565b60405180910390a3506103aa6001606555565b61056f6105e0565b6001600160a01b0381166105d45760405162461bcd60e51b815260206004820152602660248201527f4f776e61626c653a206e6577206f776e657220697320746865207a65726f206160448201526564647265737360d01b60648201526084016102f0565b6105dd81610721565b50565b6097546001600160a01b031633146102555760405162461bcd60e51b815260206004820181905260248201527f4f776e61626c653a2063616c6c6572206973206e6f7420746865206f776e657260448201526064016102f0565b6106426107ac565b6033805460ff191660011790557f62e78cea01bee320cd4e420270b5ea74000d11b0c9f74754ebdbfc544b05a2586106773390565b6040516001600160a01b03909116815260200160405180910390a1565b600054610100900460ff166106bb5760405162461bcd60e51b81526004016102f090610a5f565b610255610852565b600054610100900460ff166106ea5760405162461bcd60e51b81526004016102f090610a5f565b610255610885565b600054610100900460ff166107195760405162461bcd60e51b81526004016102f090610a5f565b6102556108ac565b609780546001600160a01b038381166001600160a01b0319831681179093556040519116919082907f8be0079c531659141344cd1fd0a4f28419497f9722a3daafe3b4186f6b6457e090600090a35050565b61077b6108dc565b6033805460ff191690557f5db9ee0a495bf2e6ff9c91a7834c1ba4fdd244a5e8aa4e537bd38aeae4b073aa33610677565b60335460ff16156102555760405162461bcd60e51b815260206004820152601060248201526f14185d5cd8589b194e881c185d5cd95960821b60448201526064016102f0565b6002606554036108445760405162461bcd60e51b815260206004820152601f60248201527f5265656e7472616e637947756172643a207265656e7472616e742063616c6c0060448201526064016102f0565b6002606555565b6001606555565b600054610100900460ff166108795760405162461bcd60e51b81526004016102f090610a5f565b6033805460ff19169055565b600054610100900460ff1661084b5760405162461bcd60e51b81526004016102f090610a5f565b600054610100900460ff166108d35760405162461bcd60e51b81526004016102f090610a5f565b61025533610721565b60335460ff166102555760405162461bcd60e51b815260206004820152601460248201527314185d5cd8589b194e881b9bdd081c185d5cd95960621b60448201526064016102f0565b6001600160a01b03811681146105dd57600080fd5b60006020828403121561094c57600080fd5b813561095781610925565b9392505050565b6000806040838503121561097157600080fd5b823561097c81610925565b9150602083013561098c81610925565b809150509250929050565b6000806000604084860312156109ac57600080fd5b83359250602084013567ffffffffffffffff808211156109cb57600080fd5b818601915086601f8301126109df57600080fd5b8135818111156109ee57600080fd5b876020828501011115610a0057600080fd5b6020830194508093505050509250925092565b600060208284031215610a2557600080fd5b815161095781610925565b60208152816020820152818360408301376000818301604090810191909152601f909201601f19160101919050565b6020808252602b908201527f496e697469616c697a61626c653a20636f6e7472616374206973206e6f74206960408201526a6e697469616c697a696e6760a81b60608201526080019056fea26469706673582212207fd9fde903aa75c984f5fa3b0449f9054f38e94b3fce96a45a374345dc129eb764736f6c63430008100033",
  "address": "0x8fe4e9273100003A93CA5026c33814369EbA530B",
  "transactionHash": "0xefe76dd2ff1712393c6b2cc49577b36d135c44e780905574a8d2a2af651d92c7"
}